{
  "_format": "hh-sol-artifact-1",
  "contractName": "DungeonDefenders",
  "sourceName": "contracts/DungeonDefenders/DungeonDefenders.sol",
  "abi": [
    {
      "inputs": [
        {
          "internalType": "contract ILoot",
          "name": "_lootToken",
          "type": "address"
        }
      ],
      "stateMutability": "nonpayable",
      "type": "constructor"
    },
    {
      "anonymous": false,
      "inputs": [
        {
          "indexed": true,
          "internalType": "address",
          "name": "owner",
          "type": "address"
        },
        {
          "indexed": true,
          "internalType": "address",
          "name": "approved",
          "type": "address"
        },
        {
          "indexed": true,
          "internalType": "uint256",
          "name": "tokenId",
          "type": "uint256"
        }
      ],
      "name": "Approval",
      "type": "event"
    },
    {
      "anonymous": false,
      "inputs": [
        {
          "indexed": true,
          "internalType": "address",
          "name": "owner",
          "type": "address"
        },
        {
          "indexed": true,
          "internalType": "address",
          "name": "operator",
          "type": "address"
        },
        {
          "indexed": false,
          "internalType": "bool",
          "name": "approved",
          "type": "bool"
        }
      ],
      "name": "ApprovalForAll",
      "type": "event"
    },
    {
      "anonymous": false,
      "inputs": [
        {
          "indexed": false,
          "internalType": "uint256",
          "name": "_fromTokenId",
          "type": "uint256"
        },
        {
          "indexed": false,
          "internalType": "uint256",
          "name": "_toTokenId",
          "type": "uint256"
        }
      ],
      "name": "BatchMetadataUpdate",
      "type": "event"
    },
    {
      "anonymous": false,
      "inputs": [
        {
          "indexed": false,
          "internalType": "uint256",
          "name": "defenderId",
          "type": "uint256"
        },
        {
          "indexed": false,
          "internalType": "uint8",
          "name": "level",
          "type": "uint8"
        }
      ],
      "name": "DefenderLeveledUp",
      "type": "event"
    },
    {
      "anonymous": false,
      "inputs": [
        {
          "indexed": false,
          "internalType": "uint256",
          "name": "_tokenId",
          "type": "uint256"
        }
      ],
      "name": "MetadataUpdate",
      "type": "event"
    },
    {
      "anonymous": false,
      "inputs": [
        {
          "indexed": false,
          "internalType": "uint256",
          "name": "defenderId",
          "type": "uint256"
        },
        {
          "indexed": false,
          "internalType": "bytes32",
          "name": "name",
          "type": "bytes32"
        }
      ],
      "name": "NewDefenderGenerated",
      "type": "event"
    },
    {
      "anonymous": false,
      "inputs": [
        {
          "indexed": true,
          "internalType": "bytes32",
          "name": "role",
          "type": "bytes32"
        },
        {
          "indexed": true,
          "internalType": "bytes32",
          "name": "previousAdminRole",
          "type": "bytes32"
        },
        {
          "indexed": true,
          "internalType": "bytes32",
          "name": "newAdminRole",
          "type": "bytes32"
        }
      ],
      "name": "RoleAdminChanged",
      "type": "event"
    },
    {
      "anonymous": false,
      "inputs": [
        {
          "indexed": true,
          "internalType": "bytes32",
          "name": "role",
          "type": "bytes32"
        },
        {
          "indexed": true,
          "internalType": "address",
          "name": "account",
          "type": "address"
        },
        {
          "indexed": true,
          "internalType": "address",
          "name": "sender",
          "type": "address"
        }
      ],
      "name": "RoleGranted",
      "type": "event"
    },
    {
      "anonymous": false,
      "inputs": [
        {
          "indexed": true,
          "internalType": "bytes32",
          "name": "role",
          "type": "bytes32"
        },
        {
          "indexed": true,
          "internalType": "address",
          "name": "account",
          "type": "address"
        },
        {
          "indexed": true,
          "internalType": "address",
          "name": "sender",
          "type": "address"
        }
      ],
      "name": "RoleRevoked",
      "type": "event"
    },
    {
      "anonymous": false,
      "inputs": [
        {
          "indexed": true,
          "internalType": "address",
          "name": "from",
          "type": "address"
        },
        {
          "indexed": true,
          "internalType": "address",
          "name": "to",
          "type": "address"
        },
        {
          "indexed": true,
          "internalType": "uint256",
          "name": "tokenId",
          "type": "uint256"
        }
      ],
      "name": "Transfer",
      "type": "event"
    },
    {
      "anonymous": false,
      "inputs": [
        {
          "indexed": false,
          "internalType": "address",
          "name": "to",
          "type": "address"
        },
        {
          "indexed": false,
          "internalType": "uint256",
          "name": "amount",
          "type": "uint256"
        }
      ],
      "name": "Withdraw",
      "type": "event"
    },
    {
      "inputs": [],
      "name": "DEFAULT_ADMIN_ROLE",
      "outputs": [
        {
          "internalType": "bytes32",
          "name": "",
          "type": "bytes32"
        }
      ],
      "stateMutability": "view",
      "type": "function"
    },
    {
      "inputs": [],
      "name": "MINT_PRICE",
      "outputs": [
        {
          "internalType": "uint256",
          "name": "",
          "type": "uint256"
        }
      ],
      "stateMutability": "view",
      "type": "function"
    },
    {
      "inputs": [],
      "name": "OPERATOR_ROLE",
      "outputs": [
        {
          "internalType": "bytes32",
          "name": "",
          "type": "bytes32"
        }
      ],
      "stateMutability": "view",
      "type": "function"
    },
    {
      "inputs": [
        {
          "internalType": "uint256",
          "name": "",
          "type": "uint256"
        }
      ],
      "name": "aesthetics",
      "outputs": [
        {
          "internalType": "uint8",
          "name": "background",
          "type": "uint8"
        },
        {
          "internalType": "uint8",
          "name": "weapon",
          "type": "uint8"
        },
        {
          "internalType": "uint8",
          "name": "armor",
          "type": "uint8"
        },
        {
          "internalType": "uint8",
          "name": "boots",
          "type": "uint8"
        }
      ],
      "stateMutability": "view",
      "type": "function"
    },
    {
      "inputs": [
        {
          "internalType": "address",
          "name": "to",
          "type": "address"
        },
        {
          "internalType": "uint256",
          "name": "tokenId",
          "type": "uint256"
        }
      ],
      "name": "approve",
      "outputs": [],
      "stateMutability": "nonpayable",
      "type": "function"
    },
    {
      "inputs": [
        {
          "internalType": "address",
          "name": "owner",
          "type": "address"
        }
      ],
      "name": "balanceOf",
      "outputs": [
        {
          "internalType": "uint256",
          "name": "",
          "type": "uint256"
        }
      ],
      "stateMutability": "view",
      "type": "function"
    },
    {
      "inputs": [
        {
          "internalType": "uint256",
          "name": "",
          "type": "uint256"
        }
      ],
      "name": "defenderExperience",
      "outputs": [
        {
          "internalType": "uint256",
          "name": "",
          "type": "uint256"
        }
      ],
      "stateMutability": "view",
      "type": "function"
    },
    {
      "inputs": [
        {
          "internalType": "uint256",
          "name": "",
          "type": "uint256"
        }
      ],
      "name": "defenders",
      "outputs": [
        {
          "internalType": "bytes32",
          "name": "name",
          "type": "bytes32"
        },
        {
          "internalType": "uint8",
          "name": "level",
          "type": "uint8"
        },
        {
          "internalType": "uint8",
          "name": "characterType",
          "type": "uint8"
        },
        {
          "internalType": "uint8",
          "name": "health",
          "type": "uint8"
        },
        {
          "internalType": "uint8",
          "name": "speed",
          "type": "uint8"
        },
        {
          "internalType": "uint8",
          "name": "strength",
          "type": "uint8"
        },
        {
          "internalType": "uint8",
          "name": "defense",
          "type": "uint8"
        },
        {
          "internalType": "uint8",
          "name": "dungeonWins",
          "type": "uint8"
        },
        {
          "internalType": "uint8",
          "name": "dungeonLosses",
          "type": "uint8"
        }
      ],
      "stateMutability": "view",
      "type": "function"
    },
    {
      "inputs": [
        {
          "internalType": "uint256",
          "name": "_defenderId",
          "type": "uint256"
        },
        {
          "internalType": "uint256",
          "name": "_lootId",
          "type": "uint256"
        }
      ],
      "name": "equipLoot",
      "outputs": [],
      "stateMutability": "nonpayable",
      "type": "function"
    },
    {
      "inputs": [
        {
          "internalType": "uint256",
          "name": "_tokenId",
          "type": "uint256"
        },
        {
          "internalType": "uint256",
          "name": "_expToGain",
          "type": "uint256"
        }
      ],
      "name": "gainExperience",
      "outputs": [],
      "stateMutability": "nonpayable",
      "type": "function"
    },
    {
      "inputs": [
        {
          "internalType": "uint256",
          "name": "tokenId",
          "type": "uint256"
        }
      ],
      "name": "getApproved",
      "outputs": [
        {
          "internalType": "address",
          "name": "",
          "type": "address"
        }
      ],
      "stateMutability": "view",
      "type": "function"
    },
    {
      "inputs": [
        {
          "internalType": "bytes32",
          "name": "role",
          "type": "bytes32"
        }
      ],
      "name": "getRoleAdmin",
      "outputs": [
        {
          "internalType": "bytes32",
          "name": "",
          "type": "bytes32"
        }
      ],
      "stateMutability": "view",
      "type": "function"
    },
    {
      "inputs": [
        {
          "internalType": "uint256",
          "name": "defenderId",
          "type": "uint256"
        }
      ],
      "name": "getSlots",
      "outputs": [
        {
          "internalType": "uint256[]",
          "name": "slots",
          "type": "uint256[]"
        }
      ],
      "stateMutability": "view",
      "type": "function"
    },
    {
      "inputs": [
        {
          "internalType": "bytes32",
          "name": "role",
          "type": "bytes32"
        },
        {
          "internalType": "address",
          "name": "account",
          "type": "address"
        }
      ],
      "name": "grantRole",
      "outputs": [],
      "stateMutability": "nonpayable",
      "type": "function"
    },
    {
      "inputs": [
        {
          "internalType": "bytes32",
          "name": "role",
          "type": "bytes32"
        },
        {
          "internalType": "address",
          "name": "account",
          "type": "address"
        }
      ],
      "name": "hasRole",
      "outputs": [
        {
          "internalType": "bool",
          "name": "",
          "type": "bool"
        }
      ],
      "stateMutability": "view",
      "type": "function"
    },
    {
      "inputs": [
        {
          "internalType": "address",
          "name": "owner",
          "type": "address"
        },
        {
          "internalType": "address",
          "name": "operator",
          "type": "address"
        }
      ],
      "name": "isApprovedForAll",
      "outputs": [
        {
          "internalType": "bool",
          "name": "",
          "type": "bool"
        }
      ],
      "stateMutability": "view",
      "type": "function"
    },
    {
      "inputs": [],
      "name": "lootToken",
      "outputs": [
        {
          "internalType": "contract ILoot",
          "name": "",
          "type": "address"
        }
      ],
      "stateMutability": "view",
      "type": "function"
    },
    {
      "inputs": [],
      "name": "name",
      "outputs": [
        {
          "internalType": "string",
          "name": "",
          "type": "string"
        }
      ],
      "stateMutability": "view",
      "type": "function"
    },
    {
      "inputs": [
        {
          "internalType": "uint256",
          "name": "tokenId",
          "type": "uint256"
        }
      ],
      "name": "ownerOf",
      "outputs": [
        {
          "internalType": "address",
          "name": "",
          "type": "address"
        }
      ],
      "stateMutability": "view",
      "type": "function"
    },
    {
      "inputs": [
        {
          "internalType": "bytes32",
          "name": "role",
          "type": "bytes32"
        },
        {
          "internalType": "address",
          "name": "account",
          "type": "address"
        }
      ],
      "name": "renounceRole",
      "outputs": [],
      "stateMutability": "nonpayable",
      "type": "function"
    },
    {
      "inputs": [
        {
          "internalType": "bytes32",
          "name": "role",
          "type": "bytes32"
        },
        {
          "internalType": "address",
          "name": "account",
          "type": "address"
        }
      ],
      "name": "revokeRole",
      "outputs": [],
      "stateMutability": "nonpayable",
      "type": "function"
    },
    {
      "inputs": [
        {
          "internalType": "address",
          "name": "to",
          "type": "address"
        },
        {
          "internalType": "bytes32",
          "name": "name",
          "type": "bytes32"
        }
      ],
      "name": "safeMint",
      "outputs": [],
      "stateMutability": "payable",
      "type": "function"
    },
    {
      "inputs": [
        {
          "internalType": "address",
          "name": "from",
          "type": "address"
        },
        {
          "internalType": "address",
          "name": "to",
          "type": "address"
        },
        {
          "internalType": "uint256",
          "name": "tokenId",
          "type": "uint256"
        }
      ],
      "name": "safeTransferFrom",
      "outputs": [],
      "stateMutability": "nonpayable",
      "type": "function"
    },
    {
      "inputs": [
        {
          "internalType": "address",
          "name": "from",
          "type": "address"
        },
        {
          "internalType": "address",
          "name": "to",
          "type": "address"
        },
        {
          "internalType": "uint256",
          "name": "tokenId",
          "type": "uint256"
        },
        {
          "internalType": "bytes",
          "name": "data",
          "type": "bytes"
        }
      ],
      "name": "safeTransferFrom",
      "outputs": [],
      "stateMutability": "nonpayable",
      "type": "function"
    },
    {
      "inputs": [
        {
          "internalType": "address",
          "name": "operator",
          "type": "address"
        },
        {
          "internalType": "bool",
          "name": "approved",
          "type": "bool"
        }
      ],
      "name": "setApprovalForAll",
      "outputs": [],
      "stateMutability": "nonpayable",
      "type": "function"
    },
    {
      "inputs": [
        {
          "internalType": "bytes4",
          "name": "interfaceId",
          "type": "bytes4"
        }
      ],
      "name": "supportsInterface",
      "outputs": [
        {
          "internalType": "bool",
          "name": "",
          "type": "bool"
        }
      ],
      "stateMutability": "view",
      "type": "function"
    },
    {
      "inputs": [],
      "name": "symbol",
      "outputs": [
        {
          "internalType": "string",
          "name": "",
          "type": "string"
        }
      ],
      "stateMutability": "view",
      "type": "function"
    },
    {
      "inputs": [
        {
          "internalType": "uint256",
          "name": "tokenId",
          "type": "uint256"
        }
      ],
      "name": "tokenURI",
      "outputs": [
        {
          "internalType": "string",
          "name": "",
          "type": "string"
        }
      ],
      "stateMutability": "view",
      "type": "function"
    },
    {
      "inputs": [
        {
          "internalType": "address",
          "name": "from",
          "type": "address"
        },
        {
          "internalType": "address",
          "name": "to",
          "type": "address"
        },
        {
          "internalType": "uint256",
          "name": "tokenId",
          "type": "uint256"
        }
      ],
      "name": "transferFrom",
      "outputs": [],
      "stateMutability": "nonpayable",
      "type": "function"
    },
    {
      "inputs": [
        {
          "internalType": "uint256",
          "name": "_defenderId",
          "type": "uint256"
        },
        {
          "internalType": "uint256",
          "name": "_lootId",
          "type": "uint256"
        }
      ],
      "name": "unequipLoot",
      "outputs": [],
      "stateMutability": "nonpayable",
      "type": "function"
    },
    {
      "inputs": [
        {
          "internalType": "uint256",
          "name": "_tokenId",
          "type": "uint256"
        },
        {
          "internalType": "bool",
          "name": "_won",
          "type": "bool"
        }
      ],
      "name": "updateWinTracker",
      "outputs": [],
      "stateMutability": "nonpayable",
      "type": "function"
    },
    {
      "inputs": [
        {
          "internalType": "address payable",
          "name": "_to",
          "type": "address"
        }
      ],
      "name": "withdraw",
      "outputs": [],
      "stateMutability": "nonpayable",
      "type": "function"
    }
  ],
  "bytecode": "0x60098054640100000000602860ff199092169190911761ff0019166164001762ff00001916620600001764ffff00000019161760ff60281b1916650200000000001760ff60301b191666030000000000001790556101c06040526000608090815261010460a05261024b60c0526103e860e0526105f06101005261087f61012052610bb861014052610fc8610160526116d961018052611b586101a052620000ac90600d90600a62000284565b50662386f26fc10000601055348015620000c557600080fd5b5060405162004bcb38038062004bcb833981016040819052620000e891620003b9565b604080518082018252601081526f44756e67656f6e446566656e6465727360801b60208083019182528351808501909452600384526244445360e81b9084015281519192916200013b9160009162000325565b5080516200015190600190602084019062000325565b505050620001867f97667070c54ef182b0f5858b034beac1b6f3089aa2d3188bb1e8929f4fa9b92933620001b960201b60201c565b62000193600033620001b9565b600f80546001600160a01b0319166001600160a01b039290921691909117905562000426565b620001c58282620001c9565b5050565b620001d5828262000255565b620001c55760008281526007602090815260408083206001600160a01b03851684529091529020805460ff191660011790556200021162000280565b6001600160a01b0316816001600160a01b0316837f2f8788117e7eff1d82e926ec794901d17c78024a50270940304540a733656f0d60405160405180910390a45050565b60009182526007602090815260408084206001600160a01b0393909316845291905290205460ff1690565b3390565b600283019183908215620003135791602002820160005b83821115620002df57835183826101000a81548163ffffffff021916908361ffff16021790555092602001926004016020816003010492830192600103026200029b565b8015620003115782816101000a81549063ffffffff0219169055600401602081600301049283019260010302620002df565b505b5062000321929150620003a2565b5090565b8280546200033390620003e9565b90600052602060002090601f01602090048101928262000357576000855562000313565b82601f106200037257805160ff191683800117855562000313565b8280016001018555821562000313579182015b828111156200031357825182559160200191906001019062000385565b5b80821115620003215760008155600101620003a3565b600060208284031215620003cb578081fd5b81516001600160a01b0381168114620003e2578182fd5b9392505050565b600281046001821680620003fe57607f821691505b602082108114156200042057634e487b7160e01b600052602260045260246000fd5b50919050565b61479580620004366000396000f3fe6080604052600436106101e35760003560e01c806367d51cc411610102578063b88d4fde11610095578063e985e9c511610064578063e985e9c514610593578063f460124d146105b3578063f5b541a6146105c8578063fc0b98b1146105dd576101e3565b8063b88d4fde1461051e578063c002d23d1461053e578063c87b56dd14610553578063d547741f14610573576101e3565b8063953b6a91116100d1578063953b6a91146104b457806395d89b41146104d4578063a217fddf146104e9578063a22cb465146104fe576101e3565b806367d51cc4146104415780636f5b5e241461045457806370a082311461047457806391d1485414610494576101e3565b806336568abe1161017a57806351cff8d91161014957806351cff8d9146103ac57806356a83946146103cc57806362c6c0fc146104015780636352211e14610421576101e3565b806336568abe1461031c57806342842e0e1461033c5780634efcb9831461035c578063502e5fbf1461038c576101e3565b806310db7bf1116101b657806310db7bf11461028f57806323b872dd146102af578063248a9ca3146102cf5780632f2ff15d146102fc576101e3565b806301ffc9a7146101e857806306fdde031461021e578063081812fc14610240578063095ea7b31461026d575b600080fd5b3480156101f457600080fd5b5061020861020336600461351b565b61060a565b6040516102159190613cf6565b60405180910390f35b34801561022a57600080fd5b5061023361061d565b6040516102159190613d52565b34801561024c57600080fd5b5061026061025b3660046134df565b6106af565b6040516102159190613c48565b34801561027957600080fd5b5061028d6102883660046134b4565b6106d6565b005b34801561029b57600080fd5b5061028d6102aa366004613632565b610777565b3480156102bb57600080fd5b5061028d6102ca366004613384565b610bfd565b3480156102db57600080fd5b506102ef6102ea3660046134df565b610c35565b6040516102159190613d01565b34801561030857600080fd5b5061028d6103173660046134f7565b610c4a565b34801561032857600080fd5b5061028d6103373660046134f7565b610c66565b34801561034857600080fd5b5061028d610357366004613384565b610cac565b34801561036857600080fd5b5061037c6103773660046134df565b610cc7565b6040516102159493929190614230565b34801561039857600080fd5b506102ef6103a73660046134df565b610d0c565b3480156103b857600080fd5b5061028d6103c7366004613314565b610d1e565b3480156103d857600080fd5b506103ec6103e73660046134df565b610de9565b60405161021599989796959493929190613d0a565b34801561040d57600080fd5b5061028d61041c366004613610565b610e61565b34801561042d57600080fd5b5061026061043c3660046134df565b610f65565b61028d61044f3660046134b4565b610f99565b34801561046057600080fd5b5061028d61046f366004613632565b610fd2565b34801561048057600080fd5b506102ef61048f366004613314565b611416565b3480156104a057600080fd5b506102086104af3660046134f7565b61145a565b3480156104c057600080fd5b5061028d6104cf366004613632565b611485565b3480156104e057600080fd5b506102336118bd565b3480156104f557600080fd5b506102ef6118cc565b34801561050a57600080fd5b5061028d610519366004613480565b6118d1565b34801561052a57600080fd5b5061028d6105393660046133c4565b6118e3565b34801561054a57600080fd5b506102ef61191c565b34801561055f57600080fd5b5061023361056e3660046134df565b611922565b34801561057f57600080fd5b5061028d61058e3660046134f7565b611e60565b34801561059f57600080fd5b506102086105ae36600461334c565b611e7c565b3480156105bf57600080fd5b50610260611eaa565b3480156105d457600080fd5b506102ef611eb9565b3480156105e957600080fd5b506105fd6105f83660046134df565b611edd565b6040516102159190613cb2565b600061061582611f67565b90505b919050565b60606000805461062c906143be565b80601f0160208091040260200160405190810160405280929190818152602001828054610658906143be565b80156106a55780601f1061067a576101008083540402835291602001916106a5565b820191906000526020600020905b81548152906001019060200180831161068857829003601f168201915b5050505050905090565b60006106ba82611f8c565b506000908152600460205260409020546001600160a01b031690565b60006106e182610f65565b9050806001600160a01b0316836001600160a01b0316141561071e5760405162461bcd60e51b8152600401610715906140fd565b60405180910390fd5b806001600160a01b0316610730611fb4565b6001600160a01b0316148061074c575061074c816105ae611fb4565b6107685760405162461bcd60e51b81526004016107159061413e565b6107728383611fb8565b505050565b3361078183610f65565b6001600160a01b0316146107a75760405162461bcd60e51b815260040161071590613e39565b600f546040516331a9108f60e11b815233916001600160a01b031690636352211e906107d7908590600401613d01565b60206040518083038186803b1580156107ef57600080fd5b505afa158015610803573d6000803e3d6000fd5b505050506040513d601f19601f820116820180604052508101906108279190613330565b6001600160a01b03161461084d5760405162461bcd60e51b81526004016107159061419b565b600f54604051635739ad5560e01b81526000916001600160a01b031690635739ad559061087e908590600401613d01565b6101406040518083038186803b15801561089757600080fd5b505afa1580156108ab573d6000803e3d6000fd5b505050506040513d601f19601f820116820180604052508101906108cf9190613553565b60c081015190915060ff1615610996576000600b848154811061090257634e487b7160e01b600052603260045260246000fd5b60009182526020822060029190910201805460ff191660ff9390931692909217909155600b80548590811061094757634e487b7160e01b600052603260045260246000fd5b9060005260206000209060020201600101600960039054906101000a900460ff1660ff168154811061098957634e487b7160e01b600052603260045260246000fd5b6000918252602090912001555b60e081015160ff1615610a61576000600b84815481106109c657634e487b7160e01b600052603260045260246000fd5b906000526020600020906002020160000160016101000a81548160ff021916908360ff1602179055506000600b8481548110610a1257634e487b7160e01b600052603260045260246000fd5b9060005260206000209060020201600101600960049054906101000a900460ff1660ff1681548110610a5457634e487b7160e01b600052603260045260246000fd5b6000918252602090912001555b61010081015160ff1615610b2d576000600b8481548110610a9257634e487b7160e01b600052603260045260246000fd5b906000526020600020906002020160000160026101000a81548160ff021916908360ff1602179055506000600b8481548110610ade57634e487b7160e01b600052603260045260246000fd5b9060005260206000209060020201600101600960059054906101000a900460ff1660ff1681548110610b2057634e487b7160e01b600052603260045260246000fd5b6000918252602090912001555b61012081015160ff1615610772576000600b8481548110610b5e57634e487b7160e01b600052603260045260246000fd5b906000526020600020906002020160000160036101000a81548160ff021916908360ff1602179055506000600b8481548110610baa57634e487b7160e01b600052603260045260246000fd5b9060005260206000209060020201600101600960069054906101000a900460ff1660ff1681548110610bec57634e487b7160e01b600052603260045260246000fd5b600091825260209091200155505050565b610c0e610c08611fb4565b82612026565b610c2a5760405162461bcd60e51b815260040161071590613d9a565b610772838383612085565b60009081526007602052604090206001015490565b610c5382610c35565b610c5c816121c2565b61077283836121d3565b610c6e611fb4565b6001600160a01b0316816001600160a01b031614610c9e5760405162461bcd60e51b8152600401610715906141c2565b610ca8828261225a565b5050565b610772838383604051806020016040528060008152506118e3565b600b8181548110610cd757600080fd5b600091825260209091206002909102015460ff8082169250610100820481169162010000810482169163010000009091041684565b600c6020526000908152604090205481565b6000610d29816121c2565b60004790506000836001600160a01b031682604051610d4790613bd0565b60006040518083038185875af1925050503d8060008114610d84576040519150601f19603f3d011682016040523d82523d6000602084013e610d89565b606091505b5050905080610daa5760405162461bcd60e51b815260040161071590613f4e565b7f884edad9ce6fa2440d8a54cc123490eb96d2768479d49ff9c7366125a94243648483604051610ddb929190613c5c565b60405180910390a150505050565b600a8181548110610df957600080fd5b60009182526020909120600290910201805460019091015490915060ff808216916101008104821691620100008204811691630100000081048216916401000000008204811691650100000000008104821691600160301b8204811691600160381b90041689565b7f97667070c54ef182b0f5858b034beac1b6f3089aa2d3188bb1e8929f4fa9b929610e8b816121c2565b8115610efb57600a8381548110610eb257634e487b7160e01b600052603260045260246000fd5b600091825260209091206002909102016001018054600160301b900460ff16906006610edd83614414565b91906101000a81548160ff021916908360ff16021790555050610772565b600a8381548110610f1c57634e487b7160e01b600052603260045260246000fd5b600091825260209091206002909102016001018054600160381b900460ff16906007610f4783614414565b91906101000a81548160ff021916908360ff16021790555050505050565b600080610f71836122df565b90506001600160a01b0381166106155760405162461bcd60e51b8152600401610715906140c6565b601054341015610fbb5760405162461bcd60e51b815260040161071590614075565b6000610fc6826122fa565b90506107728382612305565b33610fdc83610f65565b6001600160a01b0316146110025760405162461bcd60e51b815260040161071590613e39565b600f546040516331a9108f60e11b815233916001600160a01b031690636352211e90611032908590600401613d01565b60206040518083038186803b15801561104a57600080fd5b505afa15801561105e573d6000803e3d6000fd5b505050506040513d601f19601f820116820180604052508101906110829190613330565b6001600160a01b0316146110a85760405162461bcd60e51b81526004016107159061419b565b600f54604051635739ad5560e01b81526000916001600160a01b031690635739ad55906110d9908590600401613d01565b6101406040518083038186803b1580156110f257600080fd5b505afa158015611106573d6000803e3d6000fd5b505050506040513d601f19601f8201168201806040525081019061112a9190613553565b60c081015190915060ff16156111fa578060c00151600b848154811061116057634e487b7160e01b600052603260045260246000fd5b906000526020600020906002020160000160006101000a81548160ff021916908360ff16021790555081600b84815481106111ab57634e487b7160e01b600052603260045260246000fd5b9060005260206000209060020201600101600960039054906101000a900460ff1660ff16815481106111ed57634e487b7160e01b600052603260045260246000fd5b6000918252602090912001555b60e081015160ff16156112c7578060e00151600b848154811061122d57634e487b7160e01b600052603260045260246000fd5b906000526020600020906002020160000160016101000a81548160ff021916908360ff16021790555081600b848154811061127857634e487b7160e01b600052603260045260246000fd5b9060005260206000209060020201600101600960049054906101000a900460ff1660ff16815481106112ba57634e487b7160e01b600052603260045260246000fd5b6000918252602090912001555b61010081015160ff161561139657806101000151600b84815481106112fc57634e487b7160e01b600052603260045260246000fd5b906000526020600020906002020160000160026101000a81548160ff021916908360ff16021790555081600b848154811061134757634e487b7160e01b600052603260045260246000fd5b9060005260206000209060020201600101600960059054906101000a900460ff1660ff168154811061138957634e487b7160e01b600052603260045260246000fd5b6000918252602090912001555b61012081015160ff161561077257806101200151600b84815481106113cb57634e487b7160e01b600052603260045260246000fd5b906000526020600020906002020160000160036101000a81548160ff021916908360ff16021790555081600b8481548110610baa57634e487b7160e01b600052603260045260246000fd5b60006001600160a01b03821661143e5760405162461bcd60e51b815260040161071590613ff7565b506001600160a01b031660009081526003602052604090205490565b60009182526007602090815260408084206001600160a01b0393909316845291905290205460ff1690565b7f97667070c54ef182b0f5858b034beac1b6f3089aa2d3188bb1e8929f4fa9b9296114af816121c2565b600a8084815481106114d157634e487b7160e01b600052603260045260246000fd5b600091825260209091206001600290920201015460ff16106115055760405162461bcd60e51b815260040161071590613ee0565b6000838152600c602052604090205461151e8382614286565b1161153b5760405162461bcd60e51b815260040161071590613f17565b6000838152600c602052604081208054849290611559908490614286565b90915550506000838152600c60205260408120546115769061231f565b9050600a848154811061159957634e487b7160e01b600052603260045260246000fd5b600091825260209091206001600290920201015460ff8281169116146118b75780600a85815481106115db57634e487b7160e01b600052603260045260246000fd5b906000526020600020906002020160010160006101000a81548160ff021916908360ff1602179055506064600a858154811061162757634e487b7160e01b600052603260045260246000fd5b600091825260209091206002909102016001015461164f9062010000900460ff16606b6142f8565b61165991906142c3565b600a858154811061167a57634e487b7160e01b600052603260045260246000fd5b906000526020600020906002020160010160026101000a81548160ff021916908360ff1602179055506064600a85815481106116c657634e487b7160e01b600052603260045260246000fd5b60009182526020909120600290910201600101546116ef906301000000900460ff16606b6142f8565b6116f991906142c3565b600a858154811061171a57634e487b7160e01b600052603260045260246000fd5b906000526020600020906002020160010160036101000a81548160ff021916908360ff1602179055506064600a858154811061176657634e487b7160e01b600052603260045260246000fd5b600091825260209091206002909102016001015461179090640100000000900460ff16606b6142f8565b61179a91906142c3565b600a85815481106117bb57634e487b7160e01b600052603260045260246000fd5b906000526020600020906002020160010160046101000a81548160ff021916908360ff1602179055506064600a858154811061180757634e487b7160e01b600052603260045260246000fd5b60009182526020909120600290910201600101546118329065010000000000900460ff16606b6142f8565b61183c91906142c3565b600a858154811061185d57634e487b7160e01b600052603260045260246000fd5b906000526020600020906002020160010160056101000a81548160ff021916908360ff1602179055507fd874e490916abd306ce4fd85f53d6d95f09af42048ac038ae635ac10917dd02d8482604051610ddb92919061421f565b50505050565b60606001805461062c906143be565b600081565b610ca86118dc611fb4565b8383612391565b6118f46118ee611fb4565b83612026565b6119105760405162461bcd60e51b815260040161071590613d9a565b6118b784848484612434565b60105481565b606061192c613259565b60405180610120016040528060ff815260200161456160ff91398152600a805461198691908590811061196f57634e487b7160e01b600052603260045260246000fd5b906000526020600020906002020160000154612467565b81600160200201819052506040518060600160405280602f81526020016146c2602f91396040820152600a80546119f29190859081106119d657634e487b7160e01b600052603260045260246000fd5b600091825260209091206001600290920201015460ff166125e4565b606080830191909152604080519182019052603080825261453160208301396080820152600a8054611a5f919085908110611a3d57634e487b7160e01b600052603260045260246000fd5b600091825260209091206002909102016001015462010000900460ff166125e4565b60a08201526040805160608101909152602f808252614693602083013960c0820152600a8054611acb919085908110611aa857634e487b7160e01b600052603260045260246000fd5b60009182526020909120600290910201600101546301000000900460ff166125e4565b60e0820152604080516060810190915260338082526146606020830139610100820152600a8054611b39919085908110611b1557634e487b7160e01b600052603260045260246000fd5b6000918252602090912060029091020160010154640100000000900460ff166125e4565b6101208201526040805160608101909152603280825261472e6020830139610140820152600a8054611ba9919085908110611b8457634e487b7160e01b600052603260045260246000fd5b600091825260209091206002909102016001015465010000000000900460ff166125e4565b6101608201526040805160608101909152603b8082526144b66020830139610180820152600a8054611c17919085908110611bf457634e487b7160e01b600052603260045260246000fd5b6000918252602090912060029091020160010154600160301b900460ff166125e4565b6101a08201526040805160608101909152603d8082526146f160208301396101c0820152600a8054611cd3919085908110611c6257634e487b7160e01b600052603260045260246000fd5b906000526020600020906002020160010160079054906101000a900460ff16600a8581548110611ca257634e487b7160e01b600052603260045260246000fd5b906000526020600020906002020160010160069054906101000a900460ff16611ccb919061429e565b60ff166125e4565b6101e0820152604080518082018252600d81526c1e17ba32bc3a1f1e17b9bb339f60991b602080830191909152610200840191909152825181840151838501516060860151608087015160a088015160c089015160e08a01516101008b0151995160009a611d439a9091016137e7565b60408051808303601f19018152908290526101208401516101408501516101608601516101808701516101a08801516101c08901516101e08a01516102008b0151979950611d96988a98906020016137e7565b60405160208183030381529060405290506000611db2856125e4565b611dbb836126ff565b602080860151606087015160a0880151604051611dda969594016139ff565b60408051808303601f190181529082905260e08501516101208601516101608701516101a08801516101e0890151949650611e1a958795906020016138a7565b6040516020818303038152906040529050611e34816126ff565b905080604051602001611e479190613b8b565b60408051808303601f1901815291905295945050505050565b611e6982610c35565b611e72816121c2565b610772838361225a565b6001600160a01b03918216600090815260056020908152604080832093909416825291909152205460ff1690565b600f546001600160a01b031681565b7f97667070c54ef182b0f5858b034beac1b6f3089aa2d3188bb1e8929f4fa9b92981565b6060600b8281548110611f0057634e487b7160e01b600052603260045260246000fd5b9060005260206000209060020201600101805480602002602001604051908101604052809291908181526020018280548015611f5b57602002820191906000526020600020905b815481526020019060010190808311611f47575b50505050509050919050565b60006001600160e01b03198216637965db0b60e01b1480610615575061061582612862565b611f9581612887565b611fb15760405162461bcd60e51b8152600401610715906140c6565b50565b3390565b600081815260046020526040902080546001600160a01b0319166001600160a01b0384169081179091558190611fed82610f65565b6001600160a01b03167f8c5be1e5ebec7d5bd14f71427d1e84f3dd0314c0f7b2291e5b200ac8c7c3b92560405160405180910390a45050565b60008061203283610f65565b9050806001600160a01b0316846001600160a01b0316148061205957506120598185611e7c565b8061207d5750836001600160a01b0316612072846106af565b6001600160a01b0316145b949350505050565b826001600160a01b031661209882610f65565b6001600160a01b0316146120be5760405162461bcd60e51b815260040161071590613e64565b6001600160a01b0382166120e45760405162461bcd60e51b815260040161071590613f7c565b6120f183838360016118b7565b826001600160a01b031661210482610f65565b6001600160a01b03161461212a5760405162461bcd60e51b815260040161071590613e64565b600081815260046020908152604080832080546001600160a01b03199081169091556001600160a01b0387811680865260038552838620805460001901905590871680865283862080546001019055868652600290945282852080549092168417909155905184937fddf252ad1be2c89b69c2b068fc378daa952ba7f163c4a11628f55a4df523b3ef91a461077283838360016118b7565b611fb1816121ce611fb4565b6128a4565b6121dd828261145a565b610ca85760008281526007602090815260408083206001600160a01b03851684529091529020805460ff19166001179055612216611fb4565b6001600160a01b0316816001600160a01b0316837f2f8788117e7eff1d82e926ec794901d17c78024a50270940304540a733656f0d60405160405180910390a45050565b612264828261145a565b15610ca85760008281526007602090815260408083206001600160a01b03851684529091529020805460ff1916905561229b611fb4565b6001600160a01b0316816001600160a01b0316837ff6391f5c32d9c69d2a47ea670b442974b53935d1edc7fd64eb21e047a839171b60405160405180910390a45050565b6000908152600260205260409020546001600160a01b031690565b6000610615826128fd565b610ca8828260405180602001604052806000815250612d74565b60005b600a8160ff1610801561237a5750600d8160ff16600a811061235457634e487b7160e01b600052603260045260246000fd5b600891828204019190066004029054906101000a900463ffffffff1663ffffffff168210155b15610618578061238981614414565b915050612322565b816001600160a01b0316836001600160a01b031614156123c35760405162461bcd60e51b815260040161071590613fc0565b6001600160a01b0383811660008181526005602090815260408083209487168084529490915290819020805460ff1916851515179055517f17307eab39ab6107e8899845ad3d59bd9653f200f220920489ca2b5937696c3190612427908590613cf6565b60405180910390a3505050565b61243f848484612085565b61244b84848484612da7565b6118b75760405162461bcd60e51b815260040161071590613de7565b606060005b60208160ff161080156124ae5750828160ff166020811061249d57634e487b7160e01b600052603260045260246000fd5b1a60f81b6001600160f81b03191615155b156124c557806124bd81614414565b91505061246c565b60008160ff1667ffffffffffffffff8111156124f157634e487b7160e01b600052604160045260246000fd5b6040519080825280601f01601f19166020018201604052801561251b576020820181803683370190505b509050600091505b60208260ff161080156125655750838260ff166020811061255457634e487b7160e01b600052603260045260246000fd5b1a60f81b6001600160f81b03191615155b156125dd57838260ff166020811061258d57634e487b7160e01b600052603260045260246000fd5b1a60f81b818360ff16815181106125b457634e487b7160e01b600052603260045260246000fd5b60200101906001600160f81b031916908160001a905350816125d581614414565b925050612523565b9392505050565b60608161260957506040805180820190915260018152600360fc1b6020820152610618565b8160005b8115612633578061261d816143f9565b915061262c9050600a836142e4565b915061260d565b60008167ffffffffffffffff81111561265c57634e487b7160e01b600052604160045260246000fd5b6040519080825280601f01601f191660200182016040528015612686576020820181803683370190505b5090505b841561207d5761269b600183614341565b91506126a8600a86614434565b6126b3906030614286565b60f81b8183815181106126d657634e487b7160e01b600052603260045260246000fd5b60200101906001600160f81b031916908160001a9053506126f8600a866142e4565b945061268a565b60608151600014156127205750604080516020810190915260008152610618565b60006040518060600160405280604081526020016144f1604091399050600060038451600261274f9190614286565b61275991906142e4565b612764906004614322565b67ffffffffffffffff81111561278a57634e487b7160e01b600052604160045260246000fd5b6040519080825280601f01601f1916602001820160405280156127b4576020820181803683370190505b509050600182016020820185865187015b80821015612820576003820191508151603f8160121c168501518453600184019350603f81600c1c168501518453600184019350603f8160061c168501518453600184019350603f81168501518453506001830192506127c5565b505060038651066001811461283c576002811461284f57612857565b603d6001830353603d6002830353612857565b603d60018303535b509195945050505050565b60006001600160e01b03198216632483248360e11b1480610615575061061582612ec2565b600080612893836122df565b6001600160a01b0316141592915050565b6128ae828261145a565b610ca8576128bb81612f02565b6128c6836020612f14565b6040516020016128d7929190613bd3565b60408051601f198184030181529082905262461bcd60e51b825261071591600401613d52565b60008061290a60086130c6565b9050600a604051806101200160405280858152602001600160ff16815260200161296d86856040518060400160405280600e81526020016d4348415241435445525f5459504560901b8152506000600960029054906101000a900460ff166130ca565b60ff1681526020016129be8685604051806040016040528060068152602001650908a8298a8960d31b815250600960009054906101000a900460ff16600960019054906101000a900460ff166130ca565b60ff168152602001612a0e86856040518060400160405280600581526020016414d411515160da1b815250600960009054906101000a900460ff16600960019054906101000a900460ff166130ca565b60ff168152602001612a618685604051806040016040528060088152602001670a6a8a48a9c8ea8960c31b815250600960009054906101000a900460ff16600960019054906101000a900460ff166130ca565b60ff168152602001612ab3868560405180604001604052806007815260200166444546454e534560c81b815250600960009054906101000a900460ff16600960019054906101000a900460ff166130ca565b60ff168152602001600060ff168152602001600060ff1681525090806001815401808255809150506001900390600052602060002090600202016000909190919091506000820151816000015560208201518160010160006101000a81548160ff021916908360ff16021790555060408201518160010160016101000a81548160ff021916908360ff16021790555060608201518160010160026101000a81548160ff021916908360ff16021790555060808201518160010160036101000a81548160ff021916908360ff16021790555060a08201518160010160046101000a81548160ff021916908360ff16021790555060c08201518160010160056101000a81548160ff021916908360ff16021790555060e08201518160010160066101000a81548160ff021916908360ff1602179055506101008201518160010160076101000a81548160ff021916908360ff1602179055505050600b6040518060a00160405280600060ff168152602001600060ff168152602001600060ff168152602001600060ff168152602001600467ffffffffffffffff811115612c6857634e487b7160e01b600052604160045260246000fd5b604051908082528060200260200182016040528015612c91578160200160208202803683370190505b509052815460018082018455600093845260209384902083516002909302018054848601516040860151606087015160ff1990931660ff9687161761ff001916610100928716929092029190911762ff0000191662010000918616919091021763ff0000001916630100000094909116939093029290921782556080830151805193949293612d2893928501929190910190613281565b505050612d356008613133565b7f88a82050efd3beae6d248186ea0a533e7ffd5c61774dcd1508cbbef7a063f0f88184604051612d66929190614211565b60405180910390a192915050565b612d7e838361313c565b612d8b6000848484612da7565b6107725760405162461bcd60e51b815260040161071590613de7565b6000612dbb846001600160a01b0316613231565b15612eb757836001600160a01b031663150b7a02612dd7611fb4565b8786866040518563ffffffff1660e01b8152600401612df99493929190613c75565b602060405180830381600087803b158015612e1357600080fd5b505af1925050508015612e43575060408051601f3d908101601f19168201909252612e4091810190613537565b60015b612e9d573d808015612e71576040519150601f19603f3d011682016040523d82523d6000602084013e612e76565b606091505b508051612e955760405162461bcd60e51b815260040161071590613de7565b805181602001fd5b6001600160e01b031916630a85bd0160e11b14905061207d565b506001949350505050565b60006001600160e01b031982166380ac58cd60e01b1480612ef357506001600160e01b03198216635b5e139f60e01b145b80610615575061061582613240565b60606106156001600160a01b03831660145b60606000612f23836002614322565b612f2e906002614286565b67ffffffffffffffff811115612f5457634e487b7160e01b600052604160045260246000fd5b6040519080825280601f01601f191660200182016040528015612f7e576020820181803683370190505b509050600360fc1b81600081518110612fa757634e487b7160e01b600052603260045260246000fd5b60200101906001600160f81b031916908160001a905350600f60fb1b81600181518110612fe457634e487b7160e01b600052603260045260246000fd5b60200101906001600160f81b031916908160001a9053506000613008846002614322565b613013906001614286565b90505b60018111156130a7576f181899199a1a9b1b9c1cb0b131b232b360811b85600f166010811061305557634e487b7160e01b600052603260045260246000fd5b1a60f81b82828151811061307957634e487b7160e01b600052603260045260246000fd5b60200101906001600160f81b031916908160001a90535060049490941c936130a0816143a7565b9050613016565b5083156125dd5760405162461bcd60e51b815260040161071590613d65565b5490565b60008086856130d8886125e4565b6040516020016130ea939291906137aa565b60408051601f198184030181529190528051602090910120905061310e8484614358565b61311b9060ff1682614434565b6131289060ff8616614286565b979650505050505050565b80546001019055565b6001600160a01b0382166131625760405162461bcd60e51b815260040161071590614040565b61316b81612887565b156131885760405162461bcd60e51b815260040161071590613ea9565b6131966000838360016118b7565b61319f81612887565b156131bc5760405162461bcd60e51b815260040161071590613ea9565b6001600160a01b038216600081815260036020908152604080832080546001019055848352600290915280822080546001600160a01b0319168417905551839291907fddf252ad1be2c89b69c2b068fc378daa952ba7f163c4a11628f55a4df523b3ef908290a4610ca86000838360016118b7565b6001600160a01b03163b151590565b6001600160e01b031981166301ffc9a760e01b14919050565b6040518061022001604052806011905b60608152602001906001900390816132695790505090565b8280548282559060005260206000209081019282156132bc579160200282015b828111156132bc5782518255916020019190600101906132a1565b506132c89291506132cc565b5090565b5b808211156132c857600081556001016132cd565b8035801515811461061857600080fd5b8051600081900b811461061857600080fd5b805160ff8116811461061857600080fd5b600060208284031215613325578081fd5b81356125dd8161448a565b600060208284031215613341578081fd5b81516125dd8161448a565b6000806040838503121561335e578081fd5b82356133698161448a565b915060208301356133798161448a565b809150509250929050565b600080600060608486031215613398578081fd5b83356133a38161448a565b925060208401356133b38161448a565b929592945050506040919091013590565b600080600080608085870312156133d9578081fd5b84356133e48161448a565b93506020858101356133f58161448a565b935060408601359250606086013567ffffffffffffffff80821115613418578384fd5b818801915088601f83011261342b578384fd5b81358181111561343d5761343d614474565b61344f601f8201601f19168501614255565b91508082528984828501011115613464578485fd5b8084840185840137810190920192909252939692955090935050565b60008060408385031215613492578182fd5b823561349d8161448a565b91506134ab602084016132e1565b90509250929050565b600080604083850312156134c6578182fd5b82356134d18161448a565b946020939093013593505050565b6000602082840312156134f0578081fd5b5035919050565b60008060408385031215613509578182fd5b8235915060208301356133798161448a565b60006020828403121561352c578081fd5b81356125dd8161449f565b600060208284031215613548578081fd5b81516125dd8161449f565b6000610140808385031215613566578182fd5b61356f81614255565b9050825181526020830151602082015261358b604084016132f1565b604082015261359c606084016132f1565b60608201526135ad608084016132f1565b60808201526135be60a084016132f1565b60a08201526135cf60c08401613303565b60c08201526135e060e08401613303565b60e08201526101006135f3818501613303565b90820152610120613605848201613303565b908201529392505050565b60008060408385031215613622578182fd5b823591506134ab602084016132e1565b60008060408385031215613644578182fd5b50508035926020909101359150565b6000815180845261366b81602086016020860161437b565b601f01601f19169290920160200192915050565b6000815161369181856020860161437b565b9290920192915050565b7f222c202261747472696275746573223a205b7b2274726169745f74797065223a815270112730b6b2911610113b30b63ab2911d1160791b602082015260310190565b62089f4b60ea1b815260030190565b7f227d2c7b2274726169745f74797065223a224c6576656c222c202276616c7565815262111d1160e91b602082015260230190565b7f227d2c7b2274726169745f74797065223a2244756e67656f6e7320417474656d81526f383a32b2111610113b30b63ab2911d1160811b602082015260300190565b7f227d2c7b2274726169745f74797065223a224865616c7468222c202276616c7581526332911d1160e11b602082015260240190565b63227d5d7d60e01b815260040190565b600084825283516137c281602085016020880161437b565b808301905083516137da81602084016020880161437b565b0160200195945050505050565b60008a516137f9818460208f0161437b565b8a5161380b8183860160208f0161437b565b8a519184010190613820818360208e0161437b565b8951910190613833818360208d0161437b565b88516138458183850160208d0161437b565b885192909101019061385b818360208b0161437b565b865161386d8183850160208b0161437b565b865192909101019061388381836020890161437b565b8451613895818385016020890161437b565b9101019b9a5050505050505050505050565b6000875160206138ba8285838d0161437b565b7f7b2274726169745f74797065223a225370656564222c202276616c7565223a2291840191825288516138f281838501848d0161437b565b7f227d2c7b2274726169745f74797065223a22537472656e677468222c2022766192018181019290925265363ab2911d1160d11b6040830152875161393d81604685018b850161437b565b7f227d2c7b2274726169745f74797065223a22446566656e7365222c202276616c60469390910192830152643ab2911d1160d91b6066830152865161398881606b8501848b0161437b565b7f227d2c7b2274726169745f74797065223a2244756e67656f6e7320446566656e606b9390910192830152506e3232b2111610113b30b63ab2911d1160891b608b8201526139f26139ed6139e76139e2609a85018961367f565b613722565b8661367f565b61379a565b9998505050505050505050565b737b226e616d65223a2022446566656e646572202360601b81528551600090613a2f816014850160208b0161437b565b7f222c20226465736372697074696f6e223a202244756e67656f6e20446566656e6014918401918201527f6465727320697320616e204e4654207765622067616d6520776865726520796f60348201527f7520636f6c6c65637420646566656e6465727320616e64206c6f6f7420616e6460548201527f207269642064756e67656f6e73206f66207468656972206d6f6e73746572732060748201527f666f722072696368657321222c202265787465726e616c5f75726c223a22687460948201527f74703a2f2f64756e67656f6e646566656e646572732e78797a222c2022696d6160b48201527f6765223a2022646174613a696d6167652f7376672b786d6c3b6261736536342c60d4820152613b7f613b7a6139e7613b75613b6f613b6a613b64613b5f60f489018f61367f565b61369b565b8c61367f565b6136ed565b8961367f565b613764565b6136de565b98975050505050505050565b60007f646174613a6170706c69636174696f6e2f6a736f6e3b6261736536342c00000082528251613bc381601d85016020870161437b565b91909101601d0192915050565b90565b60007f416363657373436f6e74726f6c3a206163636f756e742000000000000000000082528351613c0b81601785016020880161437b565b7001034b99036b4b9b9b4b733903937b6329607d1b6017918401918201528351613c3c81602884016020880161437b565b01602801949350505050565b6001600160a01b0391909116815260200190565b6001600160a01b03929092168252602082015260400190565b6001600160a01b0385811682528416602082015260408101839052608060608201819052600090613ca890830184613653565b9695505050505050565b6020808252825182820181905260009190848201906040850190845b81811015613cea57835183529284019291840191600101613cce565b50909695505050505050565b901515815260200190565b90815260200190565b98895260ff97881660208a0152958716604089015293861660608801529185166080870152841660a0860152831660c0850152821660e0840152166101008201526101200190565b6000602082526125dd6020830184613653565b6020808252818101527f537472696e67733a20686578206c656e67746820696e73756666696369656e74604082015260600190565b6020808252602d908201527f4552433732313a2063616c6c6572206973206e6f7420746f6b656e206f776e6560408201526c1c881bdc88185c1c1c9bdd9959609a1b606082015260800190565b60208082526032908201527f4552433732313a207472616e7366657220746f206e6f6e20455243373231526560408201527131b2b4bb32b91034b6b83632b6b2b73a32b960711b606082015260800190565b60208082526011908201527026bab9ba1037bbb7103232b332b73232b960791b604082015260600190565b60208082526025908201527f4552433732313a207472616e736665722066726f6d20696e636f72726563742060408201526437bbb732b960d91b606082015260800190565b6020808252601c908201527f4552433732313a20746f6b656e20616c7265616479206d696e74656400000000604082015260600190565b6020808252601d908201527f446566656e64657220697320616c7265616479206d6178206c6576656c000000604082015260600190565b6020808252601d908201527f43616e2774206761696e20616e796d6f726520657870657269656e6365000000604082015260600190565b6020808252601490820152732330b4b632b2103a379039b2b7321022ba3432b960611b604082015260600190565b60208082526024908201527f4552433732313a207472616e7366657220746f20746865207a65726f206164646040820152637265737360e01b606082015260800190565b60208082526019908201527f4552433732313a20617070726f766520746f2063616c6c657200000000000000604082015260600190565b60208082526029908201527f4552433732313a2061646472657373207a65726f206973206e6f7420612076616040820152683634b21037bbb732b960b91b606082015260800190565b6020808252818101527f4552433732313a206d696e7420746f20746865207a65726f2061646472657373604082015260600190565b60208082526031908201527f4572726f723a20596f75206d7573742070617920302e30312065746865722074604082015270379036b4b73a1030903232b332b73232b960791b606082015260800190565b60208082526018908201527f4552433732313a20696e76616c696420746f6b656e2049440000000000000000604082015260600190565b60208082526021908201527f4552433732313a20617070726f76616c20746f2063757272656e74206f776e656040820152603960f91b606082015260800190565b6020808252603d908201527f4552433732313a20617070726f76652063616c6c6572206973206e6f7420746f60408201527f6b656e206f776e6572206f7220617070726f76656420666f7220616c6c000000606082015260800190565b6020808252600d908201526c135d5cdd081bdddb881b1bdbdd609a1b604082015260600190565b6020808252602f908201527f416363657373436f6e74726f6c3a2063616e206f6e6c792072656e6f756e636560408201526e103937b632b9903337b91039b2b63360891b606082015260800190565b918252602082015260400190565b91825260ff16602082015260400190565b60ff948516815292841660208401529083166040830152909116606082015260800190565b604051601f8201601f1916810167ffffffffffffffff8111828210171561427e5761427e614474565b604052919050565b6000821982111561429957614299614448565b500190565b600060ff821660ff84168060ff038211156142bb576142bb614448565b019392505050565b600061ffff808416806142d8576142d861445e565b92169190910492915050565b6000826142f3576142f361445e565b500490565b600061ffff8083168185168183048111821515161561431957614319614448565b02949350505050565b600081600019048311821515161561433c5761433c614448565b500290565b60008282101561435357614353614448565b500390565b600060ff821660ff84168082101561437257614372614448565b90039392505050565b60005b8381101561439657818101518382015260200161437e565b838111156118b75750506000910152565b6000816143b6576143b6614448565b506000190190565b6002810460018216806143d257607f821691505b602082108114156143f357634e487b7160e01b600052602260045260246000fd5b50919050565b600060001982141561440d5761440d614448565b5060010190565b600060ff821660ff81141561442b5761442b614448565b60010192915050565b6000826144435761444361445e565b500690565b634e487b7160e01b600052601160045260246000fd5b634e487b7160e01b600052601260045260246000fd5b634e487b7160e01b600052604160045260246000fd5b6001600160a01b0381168114611fb157600080fd5b6001600160e01b031981168114611fb157600080fdfe3c2f746578743e3c7465787420783d2231302220793d223134302220636c6173733d2262617365223e44756e67656f6e20446566656e6465643a204142434445464748494a4b4c4d4e4f505152535455565758595a6162636465666768696a6b6c6d6e6f707172737475767778797a303132333435363738392b2f3c2f746578743e3c7465787420783d2231302220793d2236302220636c6173733d2262617365223e4865616c74683a203c73766720786d6c6e733d22687474703a2f2f7777772e77332e6f72672f323030302f73766722207072657365727665417370656374526174696f3d22784d696e594d696e206d656574222076696577426f783d223020302033353020333530223e3c7374796c653e2e62617365207b2066696c6c3a2077686974653b20666f6e742d66616d696c793a2073657269663b20666f6e742d73697a653a20313470783b207d3c2f7374796c653e3c726563742077696474683d223130302522206865696768743d2231303025222066696c6c3d222331303130313022202f3e3c7465787420783d2231302220793d2232302220636c6173733d2262617365223e3c2f746578743e3c7465787420783d2231302220793d223130302220636c6173733d2262617365223e537472656e6774683a203c2f746578743e3c7465787420783d2231302220793d2238302220636c6173733d2262617365223e53706565643a203c2f746578743e3c7465787420783d2231302220793d2234302220636c6173733d2262617365223e4c6576656c3a203c2f746578743e3c7465787420783d2231302220793d223136302220636c6173733d2262617365223e44756e67656f6e7320417474656d707465643a203c2f746578743e3c7465787420783d2231302220793d223132302220636c6173733d2262617365223e446566656e73653a20a2646970667358221220f1865d79495e4589624227ae60401e3c458bb1b174d0d20201d376f1d168cb7564736f6c63430008010033",
  "linkReferences": {},
  "deployedLinkReferences": {}
}