{
  "_format": "hh-sol-artifact-1",
  "contractName": "DefenderFactory",
  "sourceName": "contracts/DungeonDefenders/DefenderFactory.sol",
  "abi": [
    {
      "anonymous": false,
      "inputs": [
        {
          "indexed": false,
          "internalType": "uint256",
          "name": "defenderId",
          "type": "uint256"
        },
        {
          "indexed": false,
          "internalType": "bytes32",
          "name": "name",
          "type": "bytes32"
        }
      ],
      "name": "NewDefenderGenerated",
      "type": "event"
    },
    {
      "anonymous": false,
      "inputs": [
        {
          "indexed": true,
          "internalType": "bytes32",
          "name": "role",
          "type": "bytes32"
        },
        {
          "indexed": true,
          "internalType": "bytes32",
          "name": "previousAdminRole",
          "type": "bytes32"
        },
        {
          "indexed": true,
          "internalType": "bytes32",
          "name": "newAdminRole",
          "type": "bytes32"
        }
      ],
      "name": "RoleAdminChanged",
      "type": "event"
    },
    {
      "anonymous": false,
      "inputs": [
        {
          "indexed": true,
          "internalType": "bytes32",
          "name": "role",
          "type": "bytes32"
        },
        {
          "indexed": true,
          "internalType": "address",
          "name": "account",
          "type": "address"
        },
        {
          "indexed": true,
          "internalType": "address",
          "name": "sender",
          "type": "address"
        }
      ],
      "name": "RoleGranted",
      "type": "event"
    },
    {
      "anonymous": false,
      "inputs": [
        {
          "indexed": true,
          "internalType": "bytes32",
          "name": "role",
          "type": "bytes32"
        },
        {
          "indexed": true,
          "internalType": "address",
          "name": "account",
          "type": "address"
        },
        {
          "indexed": true,
          "internalType": "address",
          "name": "sender",
          "type": "address"
        }
      ],
      "name": "RoleRevoked",
      "type": "event"
    },
    {
      "inputs": [],
      "name": "DEFAULT_ADMIN_ROLE",
      "outputs": [
        {
          "internalType": "bytes32",
          "name": "",
          "type": "bytes32"
        }
      ],
      "stateMutability": "view",
      "type": "function"
    },
    {
      "inputs": [],
      "name": "OPERATOR_ROLE",
      "outputs": [
        {
          "internalType": "bytes32",
          "name": "",
          "type": "bytes32"
        }
      ],
      "stateMutability": "view",
      "type": "function"
    },
    {
      "inputs": [
        {
          "internalType": "uint256",
          "name": "",
          "type": "uint256"
        }
      ],
      "name": "aesthetics",
      "outputs": [
        {
          "internalType": "uint8",
          "name": "background",
          "type": "uint8"
        },
        {
          "internalType": "uint8",
          "name": "weapon",
          "type": "uint8"
        },
        {
          "internalType": "uint8",
          "name": "armor",
          "type": "uint8"
        },
        {
          "internalType": "uint8",
          "name": "boots",
          "type": "uint8"
        }
      ],
      "stateMutability": "view",
      "type": "function"
    },
    {
      "inputs": [
        {
          "internalType": "uint256",
          "name": "",
          "type": "uint256"
        }
      ],
      "name": "defenders",
      "outputs": [
        {
          "internalType": "bytes32",
          "name": "name",
          "type": "bytes32"
        },
        {
          "internalType": "uint8",
          "name": "level",
          "type": "uint8"
        },
        {
          "internalType": "uint8",
          "name": "characterType",
          "type": "uint8"
        },
        {
          "internalType": "uint8",
          "name": "health",
          "type": "uint8"
        },
        {
          "internalType": "uint8",
          "name": "speed",
          "type": "uint8"
        },
        {
          "internalType": "uint8",
          "name": "strength",
          "type": "uint8"
        },
        {
          "internalType": "uint8",
          "name": "defense",
          "type": "uint8"
        },
        {
          "internalType": "uint8",
          "name": "dungeonWins",
          "type": "uint8"
        },
        {
          "internalType": "uint8",
          "name": "dungeonLosses",
          "type": "uint8"
        }
      ],
      "stateMutability": "view",
      "type": "function"
    },
    {
      "inputs": [
        {
          "internalType": "bytes32",
          "name": "role",
          "type": "bytes32"
        }
      ],
      "name": "getRoleAdmin",
      "outputs": [
        {
          "internalType": "bytes32",
          "name": "",
          "type": "bytes32"
        }
      ],
      "stateMutability": "view",
      "type": "function"
    },
    {
      "inputs": [
        {
          "internalType": "uint256",
          "name": "defenderId",
          "type": "uint256"
        }
      ],
      "name": "getSlots",
      "outputs": [
        {
          "internalType": "uint256[]",
          "name": "slots",
          "type": "uint256[]"
        }
      ],
      "stateMutability": "view",
      "type": "function"
    },
    {
      "inputs": [
        {
          "internalType": "bytes32",
          "name": "role",
          "type": "bytes32"
        },
        {
          "internalType": "address",
          "name": "account",
          "type": "address"
        }
      ],
      "name": "grantRole",
      "outputs": [],
      "stateMutability": "nonpayable",
      "type": "function"
    },
    {
      "inputs": [
        {
          "internalType": "bytes32",
          "name": "role",
          "type": "bytes32"
        },
        {
          "internalType": "address",
          "name": "account",
          "type": "address"
        }
      ],
      "name": "hasRole",
      "outputs": [
        {
          "internalType": "bool",
          "name": "",
          "type": "bool"
        }
      ],
      "stateMutability": "view",
      "type": "function"
    },
    {
      "inputs": [
        {
          "internalType": "bytes32",
          "name": "role",
          "type": "bytes32"
        },
        {
          "internalType": "address",
          "name": "account",
          "type": "address"
        }
      ],
      "name": "renounceRole",
      "outputs": [],
      "stateMutability": "nonpayable",
      "type": "function"
    },
    {
      "inputs": [
        {
          "internalType": "bytes32",
          "name": "role",
          "type": "bytes32"
        },
        {
          "internalType": "address",
          "name": "account",
          "type": "address"
        }
      ],
      "name": "revokeRole",
      "outputs": [],
      "stateMutability": "nonpayable",
      "type": "function"
    },
    {
      "inputs": [
        {
          "internalType": "bytes4",
          "name": "interfaceId",
          "type": "bytes4"
        }
      ],
      "name": "supportsInterface",
      "outputs": [
        {
          "internalType": "bool",
          "name": "",
          "type": "bool"
        }
      ],
      "stateMutability": "view",
      "type": "function"
    }
  ],
  "bytecode": "0x608060405260028054640100000000602860ff199092169190911761ff0019166164001762ff00001916620600001764ffff00000019161760ff60281b1916650200000000001760ff60301b1916660300000000000017905534801561006457600080fd5b50610abe806100746000396000f3fe608060405234801561001057600080fd5b50600436106100a95760003560e01c806356a839461161007157806356a839461461014257806391d148541461016a578063a217fddf1461017d578063d547741f14610185578063f5b541a614610198578063fc0b98b1146101a0576100a9565b806301ffc9a7146100ae578063248a9ca3146100d75780632f2ff15d146100f757806336568abe1461010c5780634efcb9831461011f575b600080fd5b6100c16100bc3660046107db565b6101c0565b6040516100ce91906108bc565b60405180910390f35b6100ea6100e5366004610789565b6101eb565b6040516100ce91906108c7565b61010a6101053660046107a1565b610200565b005b61010a61011a3660046107a1565b610221565b61013261012d366004610789565b610270565b6040516100ce94939291906109cf565b610155610150366004610789565b6102b5565b6040516100ce999897969594939291906108d0565b6100c16101783660046107a1565b610334565b6100ea61035d565b61010a6101933660046107a1565b610362565b6100ea61037e565b6101b36101ae366004610789565b6103a2565b6040516100ce9190610878565b60006001600160e01b03198216637965db0b60e01b14806101e557506101e58261042c565b92915050565b60009081526020819052604090206001015490565b610209826101eb565b61021281610445565b61021c8383610459565b505050565b6102296104de565b6001600160a01b0316816001600160a01b0316146102625760405162461bcd60e51b815260040161025990610980565b60405180910390fd5b61026c82826104e2565b5050565b6004818154811061028057600080fd5b600091825260209091206002909102015460ff8082169250610100820481169162010000810482169163010000009091041684565b600381815481106102c557600080fd5b60009182526020909120600290910201805460019091015490915060ff8082169161010081048216916201000082048116916301000000810482169164010000000082048116916501000000000081048216916601000000000000820481169167010000000000000090041689565b6000918252602082815260408084206001600160a01b0393909316845291905290205460ff1690565b600081565b61036b826101eb565b61037481610445565b61021c83836104e2565b7f97667070c54ef182b0f5858b034beac1b6f3089aa2d3188bb1e8929f4fa9b92981565b6060600482815481106103c557634e487b7160e01b600052603260045260246000fd5b906000526020600020906002020160010180548060200260200160405190810160405280929190818152602001828054801561042057602002820191906000526020600020905b81548152602001906001019080831161040c575b50505050509050919050565b6001600160e01b031981166301ffc9a760e01b14919050565b610456816104516104de565b610565565b50565b6104638282610334565b61026c576000828152602081815260408083206001600160a01b03851684529091529020805460ff1916600117905561049a6104de565b6001600160a01b0316816001600160a01b0316837f2f8788117e7eff1d82e926ec794901d17c78024a50270940304540a733656f0d60405160405180910390a45050565b3390565b6104ec8282610334565b1561026c576000828152602081815260408083206001600160a01b03851684529091529020805460ff191690556105216104de565b6001600160a01b0316816001600160a01b0316837ff6391f5c32d9c69d2a47ea670b442974b53935d1edc7fd64eb21e047a839171b60405160405180910390a45050565b61056f8282610334565b61026c5761057c816105be565b6105878360206105d0565b604051602001610598929190610803565b60408051601f198184030181529082905262461bcd60e51b825261025991600401610918565b60606101e56001600160a01b03831660145b606060006105df836002610a0c565b6105ea9060026109f4565b67ffffffffffffffff81111561061057634e487b7160e01b600052604160045260246000fd5b6040519080825280601f01601f19166020018201604052801561063a576020820181803683370190505b509050600360fc1b8160008151811061066357634e487b7160e01b600052603260045260246000fd5b60200101906001600160f81b031916908160001a905350600f60fb1b816001815181106106a057634e487b7160e01b600052603260045260246000fd5b60200101906001600160f81b031916908160001a90535060006106c4846002610a0c565b6106cf9060016109f4565b90505b6001811115610763576f181899199a1a9b1b9c1cb0b131b232b360811b85600f166010811061071157634e487b7160e01b600052603260045260246000fd5b1a60f81b82828151811061073557634e487b7160e01b600052603260045260246000fd5b60200101906001600160f81b031916908160001a90535060049490941c9361075c81610a5b565b90506106d2565b5083156107825760405162461bcd60e51b81526004016102599061094b565b9392505050565b60006020828403121561079a578081fd5b5035919050565b600080604083850312156107b3578081fd5b8235915060208301356001600160a01b03811681146107d0578182fd5b809150509250929050565b6000602082840312156107ec578081fd5b81356001600160e01b031981168114610782578182fd5b60007f416363657373436f6e74726f6c3a206163636f756e74200000000000000000008252835161083b816017850160208801610a2b565b7001034b99036b4b9b9b4b733903937b6329607d1b601791840191820152835161086c816028840160208801610a2b565b01602801949350505050565b6020808252825182820181905260009190848201906040850190845b818110156108b057835183529284019291840191600101610894565b50909695505050505050565b901515815260200190565b90815260200190565b98895260ff97881660208a0152958716604089015293861660608801529185166080870152841660a0860152831660c0850152821660e0840152166101008201526101200190565b6000602082528251806020840152610937816040850160208701610a2b565b601f01601f19169190910160400192915050565b6020808252818101527f537472696e67733a20686578206c656e67746820696e73756666696369656e74604082015260600190565b6020808252602f908201527f416363657373436f6e74726f6c3a2063616e206f6e6c792072656e6f756e636560408201526e103937b632b9903337b91039b2b63360891b606082015260800190565b60ff948516815292841660208401529083166040830152909116606082015260800190565b60008219821115610a0757610a07610a72565b500190565b6000816000190483118215151615610a2657610a26610a72565b500290565b60005b83811015610a46578181015183820152602001610a2e565b83811115610a55576000848401525b50505050565b600081610a6a57610a6a610a72565b506000190190565b634e487b7160e01b600052601160045260246000fdfea26469706673582212208957208076ce1fa478d25d38bd09fda1996dadca78f91cab1cbe287a09b8602464736f6c63430008010033",
  "linkReferences": {},
  "deployedLinkReferences": {}
}